{
    "_format": "hh-sol-artifact-1",
    "contractName": "NotesV2",
    "sourceName": "contracts/NotesV2.sol",
    "abi": [
        {
            "anonymous": false,
            "inputs": [
                {
                    "indexed": false,
                    "internalType": "address",
                    "name": "owner",
                    "type": "address"
                },
                {
                    "indexed": false,
                    "internalType": "string",
                    "name": "category",
                    "type": "string"
                }
            ],
            "name": "CategoryAdded",
            "type": "event"
        },
        {
            "anonymous": false,
            "inputs": [
                {
                    "indexed": false,
                    "internalType": "uint256",
                    "name": "id",
                    "type": "uint256"
                },
                {
                    "indexed": false,
                    "internalType": "string",
                    "name": "ipfsHash",
                    "type": "string"
                },
                {
                    "indexed": false,
                    "internalType": "address",
                    "name": "owner",
                    "type": "address"
                },
                {
                    "indexed": false,
                    "internalType": "uint256",
                    "name": "timestamp",
                    "type": "uint256"
                },
                {
                    "indexed": false,
                    "internalType": "string",
                    "name": "category",
                    "type": "string"
                }
            ],
            "name": "NoteCreated",
            "type": "event"
        },
        {
            "anonymous": false,
            "inputs": [
                {
                    "indexed": false,
                    "internalType": "uint256",
                    "name": "id",
                    "type": "uint256"
                },
                {
                    "indexed": false,
                    "internalType": "address",
                    "name": "owner",
                    "type": "address"
                }
            ],
            "name": "NoteDeleted",
            "type": "event"
        },
        {
            "anonymous": false,
            "inputs": [
                {
                    "indexed": false,
                    "internalType": "uint256",
                    "name": "id",
                    "type": "uint256"
                },
                {
                    "indexed": false,
                    "internalType": "bool",
                    "name": "isFavorite",
                    "type": "bool"
                }
            ],
            "name": "NoteFavorited",
            "type": "event"
        },
        {
            "anonymous": false,
            "inputs": [
                {
                    "indexed": false,
                    "internalType": "uint256",
                    "name": "id",
                    "type": "uint256"
                },
                {
                    "indexed": false,
                    "internalType": "uint256",
                    "name": "timestamp",
                    "type": "uint256"
                }
            ],
            "name": "NoteUpdated",
            "type": "event"
        },
        {
            "inputs": [
                {
                    "internalType": "string",
                    "name": "_ipfsHash",
                    "type": "string"
                },
                {
                    "internalType": "string",
                    "name": "_category",
                    "type": "string"
                }
            ],
            "name": "addNote",
            "outputs": [],
            "stateMutability": "nonpayable",
            "type": "function"
        },
        {
            "inputs": [
                {
                    "internalType": "uint256",
                    "name": "_id",
                    "type": "uint256"
                }
            ],
            "name": "deleteNote",
            "outputs": [],
            "stateMutability": "nonpayable",
            "type": "function"
        },
        {
            "inputs": [],
            "name": "getFavoriteNotes",
            "outputs": [
                {
                    "components": [
                        {
                            "internalType": "uint256",
                            "name": "id",
                            "type": "uint256"
                        },
                        {
                            "internalType": "string",
                            "name": "ipfsHash",
                            "type": "string"
                        },
                        {
                            "internalType": "address",
                            "name": "owner",
                            "type": "address"
                        },
                        {
                            "internalType": "uint256",
                            "name": "timestamp",
                            "type": "uint256"
                        },
                        {
                            "internalType": "string",
                            "name": "category",
                            "type": "string"
                        },
                        {
                            "internalType": "bool",
                            "name": "isFavorite",
                            "type": "bool"
                        },
                        {
                            "internalType": "uint256",
                            "name": "lastModified",
                            "type": "uint256"
                        }
                    ],
                    "internalType": "struct NotesV2.Note[]",
                    "name": "",
                    "type": "tuple[]"
                }
            ],
            "stateMutability": "view",
            "type": "function"
        },
        {
            "inputs": [],
            "name": "getMyCategories",
            "outputs": [
                {
                    "internalType": "string[]",
                    "name": "",
                    "type": "string[]"
                }
            ],
            "stateMutability": "view",
            "type": "function"
        },
        {
            "inputs": [],
            "name": "getMyNotes",
            "outputs": [
                {
                    "components": [
                        {
                            "internalType": "uint256",
                            "name": "id",
                            "type": "uint256"
                        },
                        {
                            "internalType": "string",
                            "name": "ipfsHash",
                            "type": "string"
                        },
                        {
                            "internalType": "address",
                            "name": "owner",
                            "type": "address"
                        },
                        {
                            "internalType": "uint256",
                            "name": "timestamp",
                            "type": "uint256"
                        },
                        {
                            "internalType": "string",
                            "name": "category",
                            "type": "string"
                        },
                        {
                            "internalType": "bool",
                            "name": "isFavorite",
                            "type": "bool"
                        },
                        {
                            "internalType": "uint256",
                            "name": "lastModified",
                            "type": "uint256"
                        }
                    ],
                    "internalType": "struct NotesV2.Note[]",
                    "name": "",
                    "type": "tuple[]"
                }
            ],
            "stateMutability": "view",
            "type": "function"
        },
        {
            "inputs": [
                {
                    "internalType": "string",
                    "name": "_category",
                    "type": "string"
                }
            ],
            "name": "getNotesByCategory",
            "outputs": [
                {
                    "components": [
                        {
                            "internalType": "uint256",
                            "name": "id",
                            "type": "uint256"
                        },
                        {
                            "internalType": "string",
                            "name": "ipfsHash",
                            "type": "string"
                        },
                        {
                            "internalType": "address",
                            "name": "owner",
                            "type": "address"
                        },
                        {
                            "internalType": "uint256",
                            "name": "timestamp",
                            "type": "uint256"
                        },
                        {
                            "internalType": "string",
                            "name": "category",
                            "type": "string"
                        },
                        {
                            "internalType": "bool",
                            "name": "isFavorite",
                            "type": "bool"
                        },
                        {
                            "internalType": "uint256",
                            "name": "lastModified",
                            "type": "uint256"
                        }
                    ],
                    "internalType": "struct NotesV2.Note[]",
                    "name": "",
                    "type": "tuple[]"
                }
            ],
            "stateMutability": "view",
            "type": "function"
        },
        {
            "inputs": [],
            "name": "nextId",
            "outputs": [
                {
                    "internalType": "uint256",
                    "name": "",
                    "type": "uint256"
                }
            ],
            "stateMutability": "view",
            "type": "function"
        },
        {
            "inputs": [
                {
                    "internalType": "uint256",
                    "name": "",
                    "type": "uint256"
                }
            ],
            "name": "notes",
            "outputs": [
                {
                    "internalType": "uint256",
                    "name": "id",
                    "type": "uint256"
                },
                {
                    "internalType": "string",
                    "name": "ipfsHash",
                    "type": "string"
                },
                {
                    "internalType": "address",
                    "name": "owner",
                    "type": "address"
                },
                {
                    "internalType": "uint256",
                    "name": "timestamp",
                    "type": "uint256"
                },
                {
                    "internalType": "string",
                    "name": "category",
                    "type": "string"
                },
                {
                    "internalType": "bool",
                    "name": "isFavorite",
                    "type": "bool"
                },
                {
                    "internalType": "uint256",
                    "name": "lastModified",
                    "type": "uint256"
                }
            ],
            "stateMutability": "view",
            "type": "function"
        },
        {
            "inputs": [
                {
                    "internalType": "uint256",
                    "name": "_id",
                    "type": "uint256"
                }
            ],
            "name": "toggleFavorite",
            "outputs": [],
            "stateMutability": "nonpayable",
            "type": "function"
        },
        {
            "inputs": [
                {
                    "internalType": "uint256",
                    "name": "_id",
                    "type": "uint256"
                },
                {
                    "internalType": "string",
                    "name": "_ipfsHash",
                    "type": "string"
                },
                {
                    "internalType": "string",
                    "name": "_category",
                    "type": "string"
                }
            ],
            "name": "updateNote",
            "outputs": [],
            "stateMutability": "nonpayable",
            "type": "function"
        },
        {
            "inputs": [
                {
                    "internalType": "address",
                    "name": "",
                    "type": "address"
                },
                {
                    "internalType": "uint256",
                    "name": "",
                    "type": "uint256"
                }
            ],
            "name": "userCategories",
            "outputs": [
                {
                    "internalType": "string",
                    "name": "",
                    "type": "string"
                }
            ],
            "stateMutability": "view",
            "type": "function"
        },
        {
            "inputs": [
                {
                    "internalType": "address",
                    "name": "",
                    "type": "address"
                },
                {
                    "internalType": "uint256",
                    "name": "",
                    "type": "uint256"
                }
            ],
            "name": "userNotes",
            "outputs": [
                {
                    "internalType": "uint256",
                    "name": "",
                    "type": "uint256"
                }
            ],
            "stateMutability": "view",
            "type": "function"
        }
    ],
    "bytecode": "0x6080604052348015600f57600080fd5b506127f28061001f6000396000f3fe608060405234801561001057600080fd5b50600436106100b45760003560e01c80637abd8ef3116100715780637abd8ef31461019157806386f17bb7146101c157806399666c06146101df578063c47177f4146101fd578063da42bf2514610219578063eb02835214610237576100b4565b806309abcd3b146100b95780632fdccd0b146100d557806336eeb9a6146100f1578063465e32951461010d57806361b8ce8c1461013d57806361c3a7e61461015b575b600080fd5b6100d360048036038101906100ce9190611b38565b610267565b005b6100ef60048036038101906100ea9190611bc3565b6103c1565b005b61010b60048036038101906101069190611c3b565b6105b0565b005b61012760048036038101906101229190611cc6565b610705565b6040516101349190611d85565b60405180910390f35b6101456107be565b6040516101529190611db6565b60405180910390f35b61017560048036038101906101709190611c3b565b6107c4565b6040516101889796959493929190611dfb565b60405180910390f35b6101ab60048036038101906101a69190611e78565b610943565b6040516101b8919061209d565b60405180910390f35b6101c9610d3c565b6040516101d6919061209d565b60405180910390f35b6101e7611054565b6040516101f49190612181565b60405180910390f35b61021760048036038101906102129190611c3b565b61116a565b005b6102216113d3565b60405161022e919061209d565b60405180910390f35b610251600480360381019061024c9190611cc6565b6117ac565b60405161025e9190611db6565b60405180910390f35b3373ffffffffffffffffffffffffffffffffffffffff166001600085815260200190815260200160002060020160009054906101000a900473ffffffffffffffffffffffffffffffffffffffff1673ffffffffffffffffffffffffffffffffffffffff161461030b576040517f08c379a0000000000000000000000000000000000000000000000000000000008152600401610302906121ef565b60405180910390fd5b8160016000858152602001908152602001600020600101908161032e919061241b565b5080600160008581526020019081526020016000206004019081610352919061241b565b504260016000858152602001908152602001600020600601819055506000815111156103835761038233826117dd565b5b7f9e4d9640b7de432174dc34b1254eacf506b38a9d1fac76bfa7903f43d4e2f6e083426040516103b49291906124ed565b60405180910390a1505050565b6040518060e0016040528060005481526020018381526020013373ffffffffffffffffffffffffffffffffffffffff168152602001428152602001828152602001600015158152602001428152506001600080548152602001908152602001600020600082015181600001556020820151816001019081610442919061241b565b5060408201518160020160006101000a81548173ffffffffffffffffffffffffffffffffffffffff021916908373ffffffffffffffffffffffffffffffffffffffff1602179055506060820151816003015560808201518160040190816104a9919061241b565b5060a08201518160050160006101000a81548160ff02191690831515021790555060c08201518160060155905050600260003373ffffffffffffffffffffffffffffffffffffffff1673ffffffffffffffffffffffffffffffffffffffff16815260200190815260200160002060005490806001815401808255809150506001900390600052602060002001600090919091909150556000815111156105545761055333826117dd565b5b7f098352fd8a640fc33103a30e9f1c6eec5bd06f458e3e3eb70e3ea52d99766f7f6000548333428560405161058d959493929190612516565b60405180910390a16000808154809291906105a7906125a6565b91905055505050565b3373ffffffffffffffffffffffffffffffffffffffff166001600083815260200190815260200160002060020160009054906101000a900473ffffffffffffffffffffffffffffffffffffffff1673ffffffffffffffffffffffffffffffffffffffff1614610654576040517f08c379a000000000000000000000000000000000000000000000000000000000815260040161064b906121ef565b60405180910390fd5b6001600082815260200190815260200160002060050160009054906101000a900460ff16156001600083815260200190815260200160002060050160006101000a81548160ff0219169083151502179055507f2760db55a69942f3038cdecdba94a5a30d17681665e7ea25a2afb1123877022f816001600084815260200190815260200160002060050160009054906101000a900460ff166040516106fa9291906125ee565b60405180910390a150565b6003602052816000526040600020818154811061072157600080fd5b9060005260206000200160009150915050805461073d9061223e565b80601f01602080910402602001604051908101604052809291908181526020018280546107699061223e565b80156107b65780601f1061078b576101008083540402835291602001916107b6565b820191906000526020600020905b81548152906001019060200180831161079957829003601f168201915b505050505081565b60005481565b60016020528060005260406000206000915090508060000154908060010180546107ed9061223e565b80601f01602080910402602001604051908101604052809291908181526020018280546108199061223e565b80156108665780601f1061083b57610100808354040283529160200191610866565b820191906000526020600020905b81548152906001019060200180831161084957829003601f168201915b5050505050908060020160009054906101000a900473ffffffffffffffffffffffffffffffffffffffff16908060030154908060040180546108a79061223e565b80601f01602080910402602001604051908101604052809291908181526020018280546108d39061223e565b80156109205780601f106108f557610100808354040283529160200191610920565b820191906000526020600020905b81548152906001019060200180831161090357829003601f168201915b5050505050908060050160009054906101000a900460ff16908060060154905087565b60606000600260003373ffffffffffffffffffffffffffffffffffffffff1673ffffffffffffffffffffffffffffffffffffffff1681526020019081526020016000208054806020026020016040519081016040528092919081815260200182805480156109d057602002820191906000526020600020905b8154815260200190600101908083116109bc575b505050505090506000805b8251811015610a5257848051906020012060016000858481518110610a0357610a02612617565b5b60200260200101518152602001908152602001600020600401604051610a2991906126e9565b604051809103902003610a45578180610a41906125a6565b9250505b80806001019150506109db565b5060008167ffffffffffffffff811115610a6f57610a6e611a0d565b5b604051908082528060200260200182016040528015610aa857816020015b610a956118f6565b815260200190600190039081610a8d5790505b5090506000805b8451811015610d2f57868051906020012060016000878481518110610ad757610ad6612617565b5b60200260200101518152602001908152602001600020600401604051610afd91906126e9565b604051809103902003610d225760016000868381518110610b2157610b20612617565b5b602002602001015181526020019081526020016000206040518060e001604052908160008201548152602001600182018054610b5c9061223e565b80601f0160208091040260200160405190810160405280929190818152602001828054610b889061223e565b8015610bd55780601f10610baa57610100808354040283529160200191610bd5565b820191906000526020600020905b815481529060010190602001808311610bb857829003601f168201915b505050505081526020016002820160009054906101000a900473ffffffffffffffffffffffffffffffffffffffff1673ffffffffffffffffffffffffffffffffffffffff1673ffffffffffffffffffffffffffffffffffffffff16815260200160038201548152602001600482018054610c4e9061223e565b80601f0160208091040260200160405190810160405280929190818152602001828054610c7a9061223e565b8015610cc75780601f10610c9c57610100808354040283529160200191610cc7565b820191906000526020600020905b815481529060010190602001808311610caa57829003601f168201915b505050505081526020016005820160009054906101000a900460ff16151515158152602001600682015481525050838381518110610d0857610d07612617565b5b60200260200101819052508180610d1e906125a6565b9250505b8080600101915050610aaf565b5081945050505050919050565b60606000600260003373ffffffffffffffffffffffffffffffffffffffff1673ffffffffffffffffffffffffffffffffffffffff168152602001908152602001600020805480602002602001604051908101604052809291908181526020018280548015610dc957602002820191906000526020600020905b815481526020019060010190808311610db5575b505050505090506000815167ffffffffffffffff811115610ded57610dec611a0d565b5b604051908082528060200260200182016040528015610e2657816020015b610e136118f6565b815260200190600190039081610e0b5790505b50905060005b825181101561104b5760016000848381518110610e4c57610e4b612617565b5b602002602001015181526020019081526020016000206040518060e001604052908160008201548152602001600182018054610e879061223e565b80601f0160208091040260200160405190810160405280929190818152602001828054610eb39061223e565b8015610f005780601f10610ed557610100808354040283529160200191610f00565b820191906000526020600020905b815481529060010190602001808311610ee357829003601f168201915b505050505081526020016002820160009054906101000a900473ffffffffffffffffffffffffffffffffffffffff1673ffffffffffffffffffffffffffffffffffffffff1673ffffffffffffffffffffffffffffffffffffffff16815260200160038201548152602001600482018054610f799061223e565b80601f0160208091040260200160405190810160405280929190818152602001828054610fa59061223e565b8015610ff25780601f10610fc757610100808354040283529160200191610ff2565b820191906000526020600020905b815481529060010190602001808311610fd557829003601f168201915b505050505081526020016005820160009054906101000a900460ff1615151515815260200160068201548152505082828151811061103357611032612617565b5b60200260200101819052508080600101915050610e2c565b50809250505090565b6060600360003373ffffffffffffffffffffffffffffffffffffffff1673ffffffffffffffffffffffffffffffffffffffff168152602001908152602001600020805480602002602001604051908101604052809291908181526020016000905b828210156111615783829060005260206000200180546110d49061223e565b80601f01602080910402602001604051908101604052809291908181526020018280546111009061223e565b801561114d5780601f106111225761010080835404028352916020019161114d565b820191906000526020600020905b81548152906001019060200180831161113057829003601f168201915b5050505050815260200190600101906110b5565b50505050905090565b3373ffffffffffffffffffffffffffffffffffffffff166001600083815260200190815260200160002060020160009054906101000a900473ffffffffffffffffffffffffffffffffffffffff1673ffffffffffffffffffffffffffffffffffffffff161461120e576040517f08c379a0000000000000000000000000000000000000000000000000000000008152600401611205906121ef565b60405180910390fd5b6001600082815260200190815260200160002060008082016000905560018201600061123a919061194b565b6002820160006101000a81549073ffffffffffffffffffffffffffffffffffffffff02191690556003820160009055600482016000611279919061194b565b6005820160006101000a81549060ff0219169055600682016000905550506000600260003373ffffffffffffffffffffffffffffffffffffffff1673ffffffffffffffffffffffffffffffffffffffff168152602001908152602001600020905060005b818054905081101561139557828282815481106112fd576112fc612617565b5b90600052602060002001540361138857816001838054905061131f9190612700565b815481106113305761132f612617565b5b906000526020600020015482828154811061134e5761134d612617565b5b90600052602060002001819055508180548061136d5761136c612734565b5b60019003818190600052602060002001600090559055611395565b80806001019150506112dd565b507f728f066f4d1d424ab5f5a591aa40aa650fe607112cd483e67cf2816f8a9631d882336040516113c7929190612763565b60405180910390a15050565b60606000600260003373ffffffffffffffffffffffffffffffffffffffff1673ffffffffffffffffffffffffffffffffffffffff16815260200190815260200160002080548060200260200160405190810160405280929190818152602001828054801561146057602002820191906000526020600020905b81548152602001906001019080831161144c575b505050505090506000805b82518110156114d3576001600084838151811061148b5761148a612617565b5b6020026020010151815260200190815260200160002060050160009054906101000a900460ff16156114c65781806114c2906125a6565b9250505b808060010191505061146b565b5060008167ffffffffffffffff8111156114f0576114ef611a0d565b5b60405190808252806020026020018201604052801561152957816020015b6115166118f6565b81526020019060019003908161150e5790505b5090506000805b84518110156117a157600160008683815181106115505761154f612617565b5b6020026020010151815260200190815260200160002060050160009054906101000a900460ff1615611794576001600086838151811061159357611592612617565b5b602002602001015181526020019081526020016000206040518060e0016040529081600082015481526020016001820180546115ce9061223e565b80601f01602080910402602001604051908101604052809291908181526020018280546115fa9061223e565b80156116475780601f1061161c57610100808354040283529160200191611647565b820191906000526020600020905b81548152906001019060200180831161162a57829003601f168201915b505050505081526020016002820160009054906101000a900473ffffffffffffffffffffffffffffffffffffffff1673ffffffffffffffffffffffffffffffffffffffff1673ffffffffffffffffffffffffffffffffffffffff168152602001600382015481526020016004820180546116c09061223e565b80601f01602080910402602001604051908101604052809291908181526020018280546116ec9061223e565b80156117395780601f1061170e57610100808354040283529160200191611739565b820191906000526020600020905b81548152906001019060200180831161171c57829003601f168201915b505050505081526020016005820160009054906101000a900460ff1615151515815260200160068201548152505083838151811061177a57611779612617565b5b60200260200101819052508180611790906125a6565b9250505b8080600101915050611530565b508194505050505090565b600260205281600052604060002081815481106117c857600080fd5b90600052602060002001600091509150505481565b6000600360008473ffffffffffffffffffffffffffffffffffffffff1673ffffffffffffffffffffffffffffffffffffffff168152602001908152602001600020905060005b818054905081101561188257828051906020012082828154811061184a57611849612617565b5b9060005260206000200160405161186191906126e9565b6040518091039020036118755750506118f2565b8080600101915050611823565b5080829080600181540180825580915050600190039060005260206000200160009091909190915090816118b6919061241b565b507f3b3e0ad7e1da644f725077eda1441b0f241f4845d757b1a2485aedbaee4949c883836040516118e892919061278c565b60405180910390a1505b5050565b6040518060e001604052806000815260200160608152602001600073ffffffffffffffffffffffffffffffffffffffff1681526020016000815260200160608152602001600015158152602001600081525090565b5080546119579061223e565b6000825580601f106119695750611988565b601f016020900490600052602060002090810190611987919061198b565b5b50565b5b808211156119a457600081600090555060010161198c565b5090565b6000604051905090565b600080fd5b600080fd5b6000819050919050565b6119cf816119bc565b81146119da57600080fd5b50565b6000813590506119ec816119c6565b92915050565b600080fd5b600080fd5b6000601f19601f8301169050919050565b7f4e487b7100000000000000000000000000000000000000000000000000000000600052604160045260246000fd5b611a45826119fc565b810181811067ffffffffffffffff82111715611a6457611a63611a0d565b5b80604052505050565b6000611a776119a8565b9050611a838282611a3c565b919050565b600067ffffffffffffffff821115611aa357611aa2611a0d565b5b611aac826119fc565b9050602081019050919050565b82818337600083830152505050565b6000611adb611ad684611a88565b611a6d565b905082815260208101848484011115611af757611af66119f7565b5b611b02848285611ab9565b509392505050565b600082601f830112611b1f57611b1e6119f2565b5b8135611b2f848260208601611ac8565b91505092915050565b600080600060608486031215611b5157611b506119b2565b5b6000611b5f868287016119dd565b935050602084013567ffffffffffffffff811115611b8057611b7f6119b7565b5b611b8c86828701611b0a565b925050604084013567ffffffffffffffff811115611bad57611bac6119b7565b5b611bb986828701611b0a565b9150509250925092565b60008060408385031215611bda57611bd96119b2565b5b600083013567ffffffffffffffff811115611bf857611bf76119b7565b5b611c0485828601611b0a565b925050602083013567ffffffffffffffff811115611c2557611c246119b7565b5b611c3185828601611b0a565b9150509250929050565b600060208284031215611c5157611c506119b2565b5b6000611c5f848285016119dd565b91505092915050565b600073ffffffffffffffffffffffffffffffffffffffff82169050919050565b6000611c9382611c68565b9050919050565b611ca381611c88565b8114611cae57600080fd5b50565b600081359050611cc081611c9a565b92915050565b60008060408385031215611cdd57611cdc6119b2565b5b6000611ceb85828601611cb1565b9250506020611cfc858286016119dd565b9150509250929050565b600081519050919050565b600082825260208201905092915050565b60005b83811015611d40578082015181840152602081019050611d25565b60008484015250505050565b6000611d5782611d06565b611d618185611d11565b9350611d71818560208601611d22565b611d7a816119fc565b840191505092915050565b60006020820190508181036000830152611d9f8184611d4c565b905092915050565b611db0816119bc565b82525050565b6000602082019050611dcb6000830184611da7565b92915050565b611dda81611c88565b82525050565b60008115159050919050565b611df581611de0565b82525050565b600060e082019050611e10600083018a611da7565b8181036020830152611e228189611d4c565b9050611e316040830188611dd1565b611e3e6060830187611da7565b8181036080830152611e508186611d4c565b9050611e5f60a0830185611dec565b611e6c60c0830184611da7565b98975050505050505050565b600060208284031215611e8e57611e8d6119b2565b5b600082013567ffffffffffffffff811115611eac57611eab6119b7565b5b611eb884828501611b0a565b91505092915050565b600081519050919050565b600082825260208201905092915050565b6000819050602082019050919050565b611ef6816119bc565b82525050565b600082825260208201905092915050565b6000611f1882611d06565b611f228185611efc565b9350611f32818560208601611d22565b611f3b816119fc565b840191505092915050565b611f4f81611c88565b82525050565b611f5e81611de0565b82525050565b600060e083016000830151611f7c6000860182611eed565b5060208301518482036020860152611f948282611f0d565b9150506040830151611fa96040860182611f46565b506060830151611fbc6060860182611eed565b5060808301518482036080860152611fd48282611f0d565b91505060a0830151611fe960a0860182611f55565b5060c0830151611ffc60c0860182611eed565b508091505092915050565b60006120138383611f64565b905092915050565b6000602082019050919050565b600061203382611ec1565b61203d8185611ecc565b93508360208202850161204f85611edd565b8060005b8581101561208b578484038952815161206c8582612007565b94506120778361201b565b925060208a01995050600181019050612053565b50829750879550505050505092915050565b600060208201905081810360008301526120b78184612028565b905092915050565b600081519050919050565b600082825260208201905092915050565b6000819050602082019050919050565b60006120f78383611f0d565b905092915050565b6000602082019050919050565b6000612117826120bf565b61212181856120ca565b935083602082028501612133856120db565b8060005b8581101561216f578484038952815161215085826120eb565b945061215b836120ff565b925060208a01995050600181019050612137565b50829750879550505050505092915050565b6000602082019050818103600083015261219b818461210c565b905092915050565b7f4e6f7420796f7572206e6f746500000000000000000000000000000000000000600082015250565b60006121d9600d83611d11565b91506121e4826121a3565b602082019050919050565b60006020820190508181036000830152612208816121cc565b9050919050565b7f4e487b7100000000000000000000000000000000000000000000000000000000600052602260045260246000fd5b6000600282049050600182168061225657607f821691505b6020821081036122695761226861220f565b5b50919050565b60008190508160005260206000209050919050565b60006020601f8301049050919050565b600082821b905092915050565b6000600883026122d17fffffffffffffffffffffffffffffffffffffffffffffffffffffffffffffffff82612294565b6122db8683612294565b95508019841693508086168417925050509392505050565b6000819050919050565b600061231861231361230e846119bc565b6122f3565b6119bc565b9050919050565b6000819050919050565b612332836122fd565b61234661233e8261231f565b8484546122a1565b825550505050565b600090565b61235b61234e565b612366818484612329565b505050565b5b8181101561238a5761237f600082612353565b60018101905061236c565b5050565b601f8211156123cf576123a08161226f565b6123a984612284565b810160208510156123b8578190505b6123cc6123c485612284565b83018261236b565b50505b505050565b600082821c905092915050565b60006123f2600019846008026123d4565b1980831691505092915050565b600061240b83836123e1565b9150826002028217905092915050565b61242482611d06565b67ffffffffffffffff81111561243d5761243c611a0d565b5b612447825461223e565b61245282828561238e565b600060209050601f8311600181146124855760008415612473578287015190505b61247d85826123ff565b8655506124e5565b601f1984166124938661226f565b60005b828110156124bb57848901518255600182019150602085019450602081019050612496565b868310156124d857848901516124d4601f8916826123e1565b8355505b6001600288020188555050505b505050505050565b60006040820190506125026000830185611da7565b61250f6020830184611da7565b9392505050565b600060a08201905061252b6000830188611da7565b818103602083015261253d8187611d4c565b905061254c6040830186611dd1565b6125596060830185611da7565b818103608083015261256b8184611d4c565b90509695505050505050565b7f4e487b7100000000000000000000000000000000000000000000000000000000600052601160045260246000fd5b60006125b1826119bc565b91507fffffffffffffffffffffffffffffffffffffffffffffffffffffffffffffffff82036125e3576125e2612577565b5b600182019050919050565b60006040820190506126036000830185611da7565b6126106020830184611dec565b9392505050565b7f4e487b7100000000000000000000000000000000000000000000000000000000600052603260045260246000fd5b600081905092915050565b60008190508160005260206000209050919050565b600081546126738161223e565b61267d8186612646565b9450600182166000811461269857600181146126ad576126e0565b60ff19831686528115158202860193506126e0565b6126b685612651565b60005b838110156126d8578154818901526001820191506020810190506126b9565b838801955050505b50505092915050565b60006126f58284612666565b915081905092915050565b600061270b826119bc565b9150612716836119bc565b925082820390508181111561272e5761272d612577565b5b92915050565b7f4e487b7100000000000000000000000000000000000000000000000000000000600052603160045260246000fd5b60006040820190506127786000830185611da7565b6127856020830184611dd1565b9392505050565b60006040820190506127a16000830185611dd1565b81810360208301526127b38184611d4c565b9050939250505056fea264697066735822122004d147e3714fb1a0266364341190f407abb17a91703beb4b495986cac3317f1864736f6c634300081c0033",
    "linkReferences": {},
    "deployedLinkReferences": {}
}